{
  "contractName": "Usage",
  "abi": [
    {
      "constant": true,
      "inputs": [
        {
          "name": "",
          "type": "address"
        }
      ],
      "name": "usageHashes",
      "outputs": [
        {
          "name": "",
          "type": "bytes32"
        }
      ],
      "payable": false,
      "stateMutability": "view",
      "type": "function",
      "signature": "0x56ea89c7"
    },
    {
      "constant": false,
      "inputs": [
        {
          "name": "usageHash",
          "type": "bytes32"
        }
      ],
      "name": "setUsage",
      "outputs": [],
      "payable": false,
      "stateMutability": "nonpayable",
      "type": "function",
      "signature": "0x12c688e7"
    },
    {
      "constant": true,
      "inputs": [],
      "name": "getUsage",
      "outputs": [
        {
          "name": "",
          "type": "bytes32"
        }
      ],
      "payable": false,
      "stateMutability": "view",
      "type": "function",
      "signature": "0x7a08a45a"
    }
  ],
  "bytecode": "0x608060405234801561001057600080fd5b50610273806100206000396000f3fe608060405260043610610057576000357c0100000000000000000000000000000000000000000000000000000000900463ffffffff16806312c688e71461005c57806356ea89c7146100975780637a08a45a146100fc575b600080fd5b34801561006857600080fd5b506100956004803603602081101561007f57600080fd5b8101908080359060200190929190505050610127565b005b3480156100a357600080fd5b506100e6600480360360208110156100ba57600080fd5b81019080803573ffffffffffffffffffffffffffffffffffffffff1690602001909291905050506101e9565b6040518082815260200191505060405180910390f35b34801561010857600080fd5b50610111610201565b6040518082815260200191505060405180910390f35b600060010281141515156101a3576040517f08c379a00000000000000000000000000000000000000000000000000000000081526004018080602001828103825260128152602001807f496e76616c69642075736167652068617368000000000000000000000000000081525060200191505060405180910390fd5b806000803373ffffffffffffffffffffffffffffffffffffffff1673ffffffffffffffffffffffffffffffffffffffff1681526020019081526020016000208190555050565b60006020528060005260406000206000915090505481565b60008060003373ffffffffffffffffffffffffffffffffffffffff1673ffffffffffffffffffffffffffffffffffffffff1681526020019081526020016000205490509056fea165627a7a72305820f21ca683c7c31911aaffd5835cdfe220f4c03d6df525c31508d46929bce9ed570029",
  "source": "// SPDX-License-Identifier: MIT\r\npragma solidity >=0.4.22 <0.9.0;\r\n\r\ncontract Usage {\r\n    struct UserInfo {\r\n        address user;\r\n    }\r\n\r\n    mapping(address => bytes32) public usageHashes;\r\n\r\n    function setUsage(bytes32 usageHash) public {\r\n        require(usageHash != bytes32(0), \"Invalid usage hash\");\r\n        usageHashes[msg.sender] = usageHash;\r\n    }\r\n\r\n    function getUsage() public view returns (bytes32) {\r\n        return usageHashes[msg.sender];\r\n    }\r\n\r\n\r\n}\r\n",
  "sourcePath": "C:/Users/SSAFY/Desktop/blockchain/S09P22C202/Blockchain/contracts/Usage.sol",
  "compiler": {
    "name": "solc",
    "version": "0.5.0+commit.1d4f565a.Emscripten.clang"
  },
  "schemaVersion": "3.0.2",
  "updatedAt": "2023-09-20T01:58:09.071Z",
  "devdoc": {
    "methods": {}
  },
  "userdoc": {
    "methods": {}
  }
}